{
  "contractName": "DownBad",
  "abi": [
    {
      "anonymous": false,
      "inputs": [
        {
          "indexed": false,
          "internalType": "address",
          "name": "_donatorAddr",
          "type": "address"
        }
      ],
      "name": "Donation",
      "type": "event"
    },
    {
      "anonymous": false,
      "inputs": [
        {
          "indexed": false,
          "internalType": "address payable[]",
          "name": "_downBadAddressesArr",
          "type": "address[]"
        }
      ],
      "name": "JoinDownBad",
      "type": "event"
    },
    {
      "anonymous": false,
      "inputs": [
        {
          "indexed": false,
          "internalType": "address payable[]",
          "name": "_downBadAddressesArr",
          "type": "address[]"
        }
      ],
      "name": "LeftDownBad",
      "type": "event"
    },
    {
      "payable": true,
      "stateMutability": "payable",
      "type": "fallback"
    },
    {
      "constant": true,
      "inputs": [
        {
          "internalType": "address",
          "name": "_addr",
          "type": "address"
        }
      ],
      "name": "isDownBad",
      "outputs": [
        {
          "internalType": "bool",
          "name": "",
          "type": "bool"
        }
      ],
      "payable": false,
      "stateMutability": "view",
      "type": "function"
    },
    {
      "constant": false,
      "inputs": [
        {
          "internalType": "address payable",
          "name": "_downBad",
          "type": "address"
        }
      ],
      "name": "joinDownBad",
      "outputs": [],
      "payable": false,
      "stateMutability": "nonpayable",
      "type": "function"
    },
    {
      "constant": true,
      "inputs": [],
      "name": "getDownBad",
      "outputs": [
        {
          "internalType": "address payable[]",
          "name": "",
          "type": "address[]"
        }
      ],
      "payable": false,
      "stateMutability": "view",
      "type": "function"
    },
    {
      "constant": false,
      "inputs": [
        {
          "internalType": "address payable",
          "name": "_downBad",
          "type": "address"
        }
      ],
      "name": "removeDownBad",
      "outputs": [],
      "payable": false,
      "stateMutability": "nonpayable",
      "type": "function"
    }
  ],
  "bytecode": "0x608060405234801561001057600080fd5b5061081a806100206000396000f3fe60806040526004361061003f5760003560e01c806321aa0ade1461016c5780634d39bd04146101bd5780635d3d27991461020e578063c7826f8e1461027a575b600080600001805490501461016a57600080600001805490509050600081348161006557fe5b04905060008090505b828110156101035760008001818154811061008557fe5b9060005260206000200160009054906101000a900473ffffffffffffffffffffffffffffffffffffffff1673ffffffffffffffffffffffffffffffffffffffff166108fc839081150290604051600060405180830381858888f193505050501580156100f5573d6000803e3d6000fd5b50808060010191505061006e565b507f187f451f92c6a4236353b5331d5fb67bdbfcc66b54367037fba41d6bcef08ce733604051808273ffffffffffffffffffffffffffffffffffffffff1673ffffffffffffffffffffffffffffffffffffffff16815260200191505060405180910390a150505b005b34801561017857600080fd5b506101bb6004803603602081101561018f57600080fd5b81019080803573ffffffffffffffffffffffffffffffffffffffff1690602001909291905050506102e3565b005b3480156101c957600080fd5b5061020c600480360360208110156101e057600080fd5b81019080803573ffffffffffffffffffffffffffffffffffffffff1690602001909291905050506104bc565b005b34801561021a57600080fd5b506102236106fd565b6040518080602001828103825283818151815260200191508051906020019060200280838360005b8381101561026657808201518184015260208101905061024b565b505050509050019250505060405180910390f35b34801561028657600080fd5b506102c96004803603602081101561029d57600080fd5b81019080803573ffffffffffffffffffffffffffffffffffffffff16906020019092919050505061078d565b604051808215151515815260200191505060405180910390f35b6102ec8161078d565b6104b957600080018190806001815401808255809150509060018203906000526020600020016000909192909190916101000a81548173ffffffffffffffffffffffffffffffffffffffff021916908373ffffffffffffffffffffffffffffffffffffffff160217905550506001600060010160008373ffffffffffffffffffffffffffffffffffffffff1673ffffffffffffffffffffffffffffffffffffffff16815260200190815260200160002060006101000a81548160ff02191690831515021790555060008060000180549050905060018103600060020160008473ffffffffffffffffffffffffffffffffffffffff1673ffffffffffffffffffffffffffffffffffffffff168152602001908152602001600020819055507fcf3fe51b22bcda0654f9062dd10086312156ae71ae6e0a725b09fdb3e12df6a160008001604051808060200182810382528381815481526020019150805480156104a957602002820191906000526020600020905b8160009054906101000a900473ffffffffffffffffffffffffffffffffffffffff1673ffffffffffffffffffffffffffffffffffffffff168152602001906001019080831161045f575b50509250505060405180910390a1505b50565b6104c58161078d565b156106fa5760008060020160008373ffffffffffffffffffffffffffffffffffffffff1673ffffffffffffffffffffffffffffffffffffffff16815260200190815260200160002054905060008060000180549050905060008001600182038154811061052e57fe5b9060005260206000200160009054906101000a900473ffffffffffffffffffffffffffffffffffffffff1660008001838154811061056857fe5b9060005260206000200160006101000a81548173ffffffffffffffffffffffffffffffffffffffff021916908373ffffffffffffffffffffffffffffffffffffffff1602179055506000800160018203815481106105c257fe5b9060005260206000200160006101000a81549073ffffffffffffffffffffffffffffffffffffffff021916905560008060010160008573ffffffffffffffffffffffffffffffffffffffff1673ffffffffffffffffffffffffffffffffffffffff16815260200190815260200160002060006101000a81548160ff0219169083151502179055507f9f9e4efee372d36d56c6076497da1a1614f5066cdada0bb924f28548c3a95e6160008001604051808060200182810382528381815481526020019150805480156106e957602002820191906000526020600020905b8160009054906101000a900473ffffffffffffffffffffffffffffffffffffffff1673ffffffffffffffffffffffffffffffffffffffff168152602001906001019080831161069f575b50509250505060405180910390a150505b50565b60606000800180548060200260200160405190810160405280929190818152602001828054801561078357602002820191906000526020600020905b8160009054906101000a900473ffffffffffffffffffffffffffffffffffffffff1673ffffffffffffffffffffffffffffffffffffffff1681526020019060010190808311610739575b5050505050905090565b60008060010160008373ffffffffffffffffffffffffffffffffffffffff1673ffffffffffffffffffffffffffffffffffffffff16815260200190815260200160002060009054906101000a900460ff16905091905056fea265627a7a72315820c784653e353f672b6d9c078043b593e0bba3448e7315e862e3693f0411b38e1364736f6c63430005100032",
  "source": "// SPDX-License-Identifier: MIT\npragma solidity >=0.4.22 <0.9.0;\n\ncontract DownBad {\n\n\tevent JoinDownBad(address payable[] _downBadAddressesArr);\n\tevent LeftDownBad(address payable[] _downBadAddressesArr);\n\tevent Donation(address _donatorAddr);\n\n\tstruct DownBadManager {\n\t\taddress payable[] downBadAddressesArr;\n\t\tmapping (address => bool)  downBadAddressesPresent;\n\t\tmapping (address => uint)  downBadIndices;\n\t}\n\n\tDownBadManager manager;\n\n\tfunction () external payable {\n\n\t\tif(manager.downBadAddressesArr.length != 0){\n\t\t\tuint numOfDownBad = manager.downBadAddressesArr.length;\n\t\t\tuint split = msg.value / numOfDownBad;\n\n\t\t\tfor(uint i = 0; i < numOfDownBad; i++){\n\n\t\t\t\tmanager.downBadAddressesArr[i].transfer(split);\n\t\t\t}\n\n\t\t\temit Donation(msg.sender);\n\t\t}\n\n\t}\n\n\tfunction isDownBad(address _addr) public view returns (bool) {\n\n\t\treturn manager.downBadAddressesPresent[_addr];\n\t}\n\n\tfunction joinDownBad(address payable _downBad) public {\n\n\t\tif(!isDownBad(_downBad)){\n\n\t\t\tmanager.downBadAddressesArr.push(_downBad);\n\t\t\tmanager.downBadAddressesPresent[_downBad] = true;\n\t\t\tuint arrLength = manager.downBadAddressesArr.length;\n\t\t\tmanager.downBadIndices[_downBad] = arrLength - 1;\n\t\t\temit JoinDownBad(manager.downBadAddressesArr);\n\t\t}\n\t}\n\n\n\tfunction getDownBad() public view returns (address payable[] memory) {\n\n\t\treturn manager.downBadAddressesArr;\n\t}\n\n\tfunction removeDownBad(address payable _downBad) public {\n\n\t\tif(isDownBad(_downBad)){\n\n\t\t\tuint index = manager.downBadIndices[_downBad];\n\t\t\tuint arrLength = manager.downBadAddressesArr.length;\n\t\t\tmanager.downBadAddressesArr[index] = manager.downBadAddressesArr[arrLength - 1];\n\t\t\tdelete manager.downBadAddressesArr[arrLength - 1];\n\t\t\tmanager.downBadAddressesPresent[_downBad] = false;\n\t\t\temit LeftDownBad(manager.downBadAddressesArr);\n\t\t}\n\n\t}\n\n}\n",
  "sourcePath": "/Users/odellblackmoniii/Projects/DownBad/contracts/DownBad.sol",
  "compiler": {
    "name": "solc",
    "version": "0.5.16+commit.9c3226ce.Emscripten.clang"
  },
  "schemaVersion": "3.4.2",
  "updatedAt": "2021-12-14T21:29:28.861Z",
  "networkType": "ethereum",
  "devdoc": {
    "methods": {}
  },
  "userdoc": {
    "methods": {}
  }
}