{
  "contractName": "DownBad",
  "abi": [
    {
      "inputs": [],
      "payable": false,
      "stateMutability": "nonpayable",
      "type": "constructor"
    },
    {
      "payable": true,
      "stateMutability": "payable",
      "type": "fallback"
    },
    {
      "constant": true,
      "inputs": [
        {
          "internalType": "address",
          "name": "_addr",
          "type": "address"
        }
      ],
      "name": "isDownBad",
      "outputs": [
        {
          "internalType": "bool",
          "name": "",
          "type": "bool"
        }
      ],
      "payable": false,
      "stateMutability": "view",
      "type": "function"
    },
    {
      "constant": false,
      "inputs": [
        {
          "internalType": "address payable",
          "name": "_downBad",
          "type": "address"
        }
      ],
      "name": "joinDownBad",
      "outputs": [],
      "payable": false,
      "stateMutability": "nonpayable",
      "type": "function"
    },
    {
      "constant": false,
      "inputs": [
        {
          "internalType": "address payable",
          "name": "_downBad",
          "type": "address"
        }
      ],
      "name": "removeDownBad",
      "outputs": [],
      "payable": false,
      "stateMutability": "nonpayable",
      "type": "function"
    }
  ],
  "bytecode": "0x608060405234801561001057600080fd5b50610563806100206000396000f3fe6080604052600436106100345760003560e01c806321aa0ade146100fe5780634d39bd041461014f578063c7826f8e146101a0575b60008060000180549050146100fc57600080600001805490509050600081348161005a57fe5b04905060008090505b828110156100f85760008001818154811061007a57fe5b9060005260206000200160009054906101000a900473ffffffffffffffffffffffffffffffffffffffff1673ffffffffffffffffffffffffffffffffffffffff166108fc839081150290604051600060405180830381858888f193505050501580156100ea573d6000803e3d6000fd5b508080600101915050610063565b5050505b005b34801561010a57600080fd5b5061014d6004803603602081101561012157600080fd5b81019080803573ffffffffffffffffffffffffffffffffffffffff169060200190929190505050610209565b005b34801561015b57600080fd5b5061019e6004803603602081101561017257600080fd5b81019080803573ffffffffffffffffffffffffffffffffffffffff169060200190929190505050610334565b005b3480156101ac57600080fd5b506101ef600480360360208110156101c357600080fd5b81019080803573ffffffffffffffffffffffffffffffffffffffff169060200190929190505050610485565b604051808215151515815260200191505060405180910390f35b61021281610485565b61033157600080018190806001815401808255809150509060018203906000526020600020016000909192909190916101000a81548173ffffffffffffffffffffffffffffffffffffffff021916908373ffffffffffffffffffffffffffffffffffffffff160217905550506001600060010160008373ffffffffffffffffffffffffffffffffffffffff1673ffffffffffffffffffffffffffffffffffffffff16815260200190815260200160002060006101000a81548160ff02191690831515021790555060008060000180549050905060018103600060020160008473ffffffffffffffffffffffffffffffffffffffff1673ffffffffffffffffffffffffffffffffffffffff16815260200190815260200160002081905550505b50565b61033d81610485565b156104825760008060020160008373ffffffffffffffffffffffffffffffffffffffff1673ffffffffffffffffffffffffffffffffffffffff1681526020019081526020016000205490506000806000018054905090506000800160018203815481106103a657fe5b9060005260206000200160009054906101000a900473ffffffffffffffffffffffffffffffffffffffff166000800183815481106103e057fe5b9060005260206000200160006101000a81548173ffffffffffffffffffffffffffffffffffffffff021916908373ffffffffffffffffffffffffffffffffffffffff16021790555060008001600182038154811061043a57fe5b9060005260206000200160006101000a81549073ffffffffffffffffffffffffffffffffffffffff02191690556000800180548091906001900361047e91906104dd565b5050505b50565b60008060010160008373ffffffffffffffffffffffffffffffffffffffff1673ffffffffffffffffffffffffffffffffffffffff16815260200190815260200160002060009054906101000a900460ff169050919050565b815481835581811115610504578183600052602060002091820191016105039190610509565b5b505050565b61052b91905b8082111561052757600081600090555060010161050f565b5090565b9056fea265627a7a72315820c73ebd6bdbe9c1ae12ffab4e4db7782cd7ed536819eaa99fa6585d92d1e9a39f64736f6c63430005100032",
  "source": "// SPDX-License-Identifier: MIT\npragma solidity >=0.4.22 <0.9.0;\n\ncontract DownBad {\n\n\t/*\n\tmapping(address => uint) public downBadIndices;\n\tmapping (address => bool) public downBadAddresses;\n\taddress payable downBadAddressesArr[];\n\t*/\n\n\tstruct DownBadManager {\n\t\taddress payable[] downBadAddressesArr;\n\t\tmapping (address => bool)  downBadAddressesPresent;\n\t\tmapping (address => uint)  downBadIndices;\n\t}\n\n\tDownBadManager manager;\n\n\tconstructor() public {\n\n\t}\n\n\tfunction () external payable {\n\n\t\tif(manager.downBadAddressesArr.length != 0){\n\t\t\tuint numOfDownBad = manager.downBadAddressesArr.length;\n\t\t\tuint split = msg.value / numOfDownBad;\n\n\t\t\tfor(uint i = 0; i < numOfDownBad; i++){\n\n\t\t\t\tmanager.downBadAddressesArr[i].transfer(split);\n\t\t\t}\n\t\t}\n\t}\n\n\tfunction isDownBad(address _addr) public view returns (bool) {\n\n\t\treturn manager.downBadAddressesPresent[_addr];\n\t}\n\n\tfunction joinDownBad(address payable _downBad) public {\n\n\t\tif(!isDownBad(_downBad)){\n\n\t\t\tmanager.downBadAddressesArr.push(_downBad);\n\t\t\tmanager.downBadAddressesPresent[_downBad] = true;\n\t\t\tuint arrLength = manager.downBadAddressesArr.length;\n\t\t\tmanager.downBadIndices[_downBad] = arrLength - 1;\n\n\t\t}\n\t}\n\n\n\n\tfunction removeDownBad(address payable _downBad) public {\n\n\t\tif(isDownBad(_downBad)){\n\n\t\t\tuint index = manager.downBadIndices[_downBad];\n\t\t\tuint arrLength = manager.downBadAddressesArr.length;\n\t\t\tmanager.downBadAddressesArr[index] = manager.downBadAddressesArr[arrLength - 1];\n\t\t\tdelete manager.downBadAddressesArr[arrLength - 1];\n\t\t\tmanager.downBadAddressesArr.length--;\n\t\t}\n\n\t}\n\n}\n",
  "sourcePath": "/Users/odellblackmoniii/Projects/DownBad/contracts/DownBad.sol",
  "compiler": {
    "name": "solc",
    "version": "0.5.16+commit.9c3226ce.Emscripten.clang"
  },
  "schemaVersion": "3.4.2",
  "updatedAt": "2021-08-21T02:46:09.991Z",
  "devdoc": {
    "methods": {}
  },
  "userdoc": {
    "methods": {}
  }
}