{
  "contractName": "DownBad",
  "abi": [
    {
      "payable": true,
      "stateMutability": "payable",
      "type": "fallback"
    },
    {
      "constant": true,
      "inputs": [
        {
          "internalType": "address",
          "name": "",
          "type": "address"
        }
      ],
      "name": "balances",
      "outputs": [
        {
          "internalType": "uint256",
          "name": "",
          "type": "uint256"
        }
      ],
      "payable": false,
      "stateMutability": "view",
      "type": "function"
    },
    {
      "constant": true,
      "inputs": [
        {
          "internalType": "address",
          "name": "",
          "type": "address"
        }
      ],
      "name": "downBadAddresses",
      "outputs": [
        {
          "internalType": "bool",
          "name": "",
          "type": "bool"
        }
      ],
      "payable": false,
      "stateMutability": "view",
      "type": "function"
    },
    {
      "constant": true,
      "inputs": [
        {
          "internalType": "address",
          "name": "_addr",
          "type": "address"
        }
      ],
      "name": "getBalance",
      "outputs": [
        {
          "internalType": "uint256",
          "name": "",
          "type": "uint256"
        }
      ],
      "payable": false,
      "stateMutability": "view",
      "type": "function"
    },
    {
      "constant": false,
      "inputs": [
        {
          "internalType": "address",
          "name": "_downBad",
          "type": "address"
        }
      ],
      "name": "joinDownBad",
      "outputs": [],
      "payable": false,
      "stateMutability": "nonpayable",
      "type": "function"
    },
    {
      "constant": true,
      "inputs": [
        {
          "internalType": "address",
          "name": "_addr",
          "type": "address"
        }
      ],
      "name": "isDownBad",
      "outputs": [
        {
          "internalType": "bool",
          "name": "",
          "type": "bool"
        }
      ],
      "payable": false,
      "stateMutability": "view",
      "type": "function"
    },
    {
      "constant": false,
      "inputs": [],
      "name": "withdraw",
      "outputs": [],
      "payable": false,
      "stateMutability": "nonpayable",
      "type": "function"
    }
  ],
  "bytecode": "0x608060405234801561001057600080fd5b506104f0806100206000396000f3fe6080604052600436106100555760003560e01c806321aa0ade146100a35780632207bde9146100f457806327e235e31461015d5780633ccfd60b146101c2578063c7826f8e146101d9578063f8b2cb4f14610242575b346000803373ffffffffffffffffffffffffffffffffffffffff1673ffffffffffffffffffffffffffffffffffffffff16815260200190815260200160002060008282540192505081905550005b3480156100af57600080fd5b506100f2600480360360208110156100c657600080fd5b81019080803573ffffffffffffffffffffffffffffffffffffffff1690602001909291905050506102a7565b005b34801561010057600080fd5b506101436004803603602081101561011757600080fd5b81019080803573ffffffffffffffffffffffffffffffffffffffff169060200190929190505050610349565b604051808215151515815260200191505060405180910390f35b34801561016957600080fd5b506101ac6004803603602081101561018057600080fd5b81019080803573ffffffffffffffffffffffffffffffffffffffff169060200190929190505050610369565b6040518082815260200191505060405180910390f35b3480156101ce57600080fd5b506101d7610381565b005b3480156101e557600080fd5b50610228600480360360208110156101fc57600080fd5b81019080803573ffffffffffffffffffffffffffffffffffffffff16906020019092919050505061041d565b604051808215151515815260200191505060405180910390f35b34801561024e57600080fd5b506102916004803603602081101561026557600080fd5b81019080803573ffffffffffffffffffffffffffffffffffffffff169060200190929190505050610473565b6040518082815260200191505060405180910390f35b60008060003373ffffffffffffffffffffffffffffffffffffffff1673ffffffffffffffffffffffffffffffffffffffff1681526020019081526020016000205411156103465760018060008373ffffffffffffffffffffffffffffffffffffffff1673ffffffffffffffffffffffffffffffffffffffff16815260200190815260200160002060006101000a81548160ff0219169083151502179055505b50565b60016020528060005260406000206000915054906101000a900460ff1681565b60006020528060005260406000206000915090505481565b600160003373ffffffffffffffffffffffffffffffffffffffff1673ffffffffffffffffffffffffffffffffffffffff16815260200190815260200160002060009054906101000a900460ff161561041b573373ffffffffffffffffffffffffffffffffffffffff166108fc479081150290604051600060405180830381858888f19350505050158015610419573d6000803e3d6000fd5b505b565b6000600160008373ffffffffffffffffffffffffffffffffffffffff1673ffffffffffffffffffffffffffffffffffffffff16815260200190815260200160002060009054906101000a900460ff169050919050565b60008060008373ffffffffffffffffffffffffffffffffffffffff1673ffffffffffffffffffffffffffffffffffffffff16815260200190815260200160002054905091905056fea265627a7a723158206d7ba531ef6abff5598976469c5aa43b6aa295a29f714b13c89752ed2982637c64736f6c63430005100032",
  "source": "// SPDX-License-Identifier: MIT\npragma solidity >=0.4.22 <0.9.0;\n\ncontract DownBad {\n\n\tmapping(address => uint) public balances;\n\tmapping (address => bool) public downBadAddresses;\n\n\tfunction () external payable {\n\n\t\tbalances[msg.sender] += msg.value;\n\t}\n\n\tfunction getBalance(address _addr) public view returns (uint) {\n\n\t\treturn balances[_addr];\n\t}\n\n\tfunction joinDownBad(address _downBad) public {\n\n\t\tif(balances[msg.sender] > 0){\n\n\t\t\tdownBadAddresses[_downBad] = true;\n\t\t}\n\t}\n\n\tfunction isDownBad(address _addr) public view returns (bool) {\n\n\t\treturn downBadAddresses[_addr];\n\t}\n\n\n\tfunction withdraw() public {\n\t\tif(downBadAddresses[msg.sender]){\n\t\t\t\n\t\t\tmsg.sender.transfer(address(this).balance);\n\t\t}\n\t}\n\n}\n",
  "sourcePath": "/Users/odellblackmoniii/Projects/DownBad/contracts/DownBad.sol",
  "compiler": {
    "name": "solc",
    "version": "0.5.16+commit.9c3226ce.Emscripten.clang"
  },
  "schemaVersion": "3.4.2",
  "updatedAt": "2021-08-08T01:02:33.880Z",
  "networkType": "ethereum",
  "devdoc": {
    "methods": {}
  },
  "userdoc": {
    "methods": {}
  }
}