{
  "contractName": "DownBad",
  "abi": [
    {
      "payable": true,
      "stateMutability": "payable",
      "type": "fallback"
    },
    {
      "constant": false,
      "inputs": [],
      "name": "joinDownBad",
      "outputs": [],
      "payable": false,
      "stateMutability": "nonpayable",
      "type": "function"
    },
    {
      "constant": false,
      "inputs": [],
      "name": "withdraw",
      "outputs": [],
      "payable": false,
      "stateMutability": "nonpayable",
      "type": "function"
    }
  ],
  "bytecode": "0x608060405260016040519080825280602002602001820160405280156100345781602001602082028038833980820191505090505b506001908051906020019061004a92919061005d565b5034801561005757600080fd5b506100cf565b828054828255906000526020600020908101928215610099579160200282015b8281111561009857825182559160200191906001019061007d565b5b5090506100a691906100aa565b5090565b6100cc91905b808211156100c85760008160009055506001016100b0565b5090565b90565b610298806100de6000396000f3fe6080604052600436106100295760003560e01c80633ccfd60b146100855780635b4ba6781461009c575b6000600180549050348161003957fe5b04905060008090505b60018054905081101561008157816001828154811061005d57fe5b90600052602060002001600082825401925050819055508080600101915050610042565b5050005b34801561009157600080fd5b5061009a6100b3565b005b3480156100a857600080fd5b506100b16101a4565b005b60008060003373ffffffffffffffffffffffffffffffffffffffff1673ffffffffffffffffffffffffffffffffffffffff16815260200190815260200160002054146101a25760008060003373ffffffffffffffffffffffffffffffffffffffff1673ffffffffffffffffffffffffffffffffffffffff16815260200190815260200160002054905060003390508073ffffffffffffffffffffffffffffffffffffffff166108fc6001848154811061016857fe5b90600052602060002001549081150290604051600060405180830381858888f1935050505015801561019e573d6000803e3d6000fd5b5050505b565b60008060003373ffffffffffffffffffffffffffffffffffffffff1673ffffffffffffffffffffffffffffffffffffffff168152602001908152602001600020541415610261576001805490506000803373ffffffffffffffffffffffffffffffffffffffff1673ffffffffffffffffffffffffffffffffffffffff168152602001908152602001600020819055506001600090806001815401808255809150509060018203906000526020600020016000909192909190915055505b56fea265627a7a72315820db75d83246801f7f43940647c2a5936b8e04d96a93db0fcd8a28baa14f54e1c164736f6c63430005100032",
  "source": "// SPDX-License-Identifier: MIT\npragma solidity >=0.4.22 <0.9.0;\n\ncontract DownBad {\n\t\n\tmapping(address => uint) downBadIndices;\n\tuint[] balances = new uint[](1);\n\t\n\tfunction () external payable {\n\n\t\tuint split = msg.value / balances.length;\t\n\t\tfor(uint i = 0; i < balances.length; i++){\n\t\t\t\n\t\t\tbalances[i] += split;\n\t\t}\n\t}\n\n\tfunction joinDownBad() public {\n\t\t\n\t\tif(downBadIndices[msg.sender] == 0){\n\n\t\t\tdownBadIndices[msg.sender] = balances.length;\n\t\t\tbalances.push(0);\n\t\t}\n\t}\n\t\n\n\tfunction withdraw() public {\n\n\t\tif(downBadIndices[msg.sender] != 0){\n\t\t\t\n\t\t\tuint index = downBadIndices[msg.sender];\n\t\t\taddress payable addr = address(uint160(msg.sender));\n\t\t\taddr.transfer(balances[index]);\n\t\t}\n\t}\n\n}\n",
  "sourcePath": "/home/oblackmo/Documents/DownBad/contracts/DownBad.sol",
  "compiler": {
    "name": "solc",
    "version": "0.5.16+commit.9c3226ce.Emscripten.clang"
  },
  "schemaVersion": "3.4.2",
  "updatedAt": "2021-07-31T03:47:16.038Z",
  "devdoc": {
    "methods": {}
  },
  "userdoc": {
    "methods": {}
  }
}