{
  "contractName": "DownBad",
  "abi": [
    {
      "payable": true,
      "stateMutability": "payable",
      "type": "fallback"
    },
    {
      "constant": true,
      "inputs": [
        {
          "internalType": "address",
          "name": "",
          "type": "address"
        }
      ],
      "name": "downBadIndices",
      "outputs": [
        {
          "internalType": "uint256",
          "name": "",
          "type": "uint256"
        }
      ],
      "payable": false,
      "stateMutability": "view",
      "type": "function"
    },
    {
      "constant": false,
      "inputs": [],
      "name": "joinDownBad",
      "outputs": [],
      "payable": false,
      "stateMutability": "nonpayable",
      "type": "function"
    },
    {
      "constant": false,
      "inputs": [],
      "name": "withdraw",
      "outputs": [],
      "payable": false,
      "stateMutability": "nonpayable",
      "type": "function"
    }
  ],
  "bytecode": "0x608060405260016040519080825280602002602001820160405280156100345781602001602082028038833980820191505090505b506001908051906020019061004a92919061005d565b5034801561005757600080fd5b506100cf565b828054828255906000526020600020908101928215610099579160200282015b8281111561009857825182559160200191906001019061007d565b5b5090506100a691906100aa565b5090565b6100cc91905b808211156100c85760008160009055506001016100b0565b5090565b90565b610320806100de6000396000f3fe6080604052600436106100345760003560e01c80633ccfd60b146100905780635b4ba678146100a757806398a388c8146100be575b6000600180549050348161004457fe5b04905060008090505b60018054905081101561008c57816001828154811061006857fe5b9060005260206000200160008282540192505081905550808060010191505061004d565b5050005b34801561009c57600080fd5b506100a5610123565b005b3480156100b357600080fd5b506100bc610214565b005b3480156100ca57600080fd5b5061010d600480360360208110156100e157600080fd5b81019080803573ffffffffffffffffffffffffffffffffffffffff1690602001909291905050506102d3565b6040518082815260200191505060405180910390f35b60008060003373ffffffffffffffffffffffffffffffffffffffff1673ffffffffffffffffffffffffffffffffffffffff16815260200190815260200160002054146102125760008060003373ffffffffffffffffffffffffffffffffffffffff1673ffffffffffffffffffffffffffffffffffffffff16815260200190815260200160002054905060003390508073ffffffffffffffffffffffffffffffffffffffff166108fc600184815481106101d857fe5b90600052602060002001549081150290604051600060405180830381858888f1935050505015801561020e573d6000803e3d6000fd5b5050505b565b60008060003373ffffffffffffffffffffffffffffffffffffffff1673ffffffffffffffffffffffffffffffffffffffff1681526020019081526020016000205414156102d1576001805490506000803373ffffffffffffffffffffffffffffffffffffffff1673ffffffffffffffffffffffffffffffffffffffff168152602001908152602001600020819055506001600090806001815401808255809150509060018203906000526020600020016000909192909190915055505b565b6000602052806000526040600020600091509050548156fea265627a7a7231582094a62c3aaad719953b18c2079cea2069733b8035ea0d5fbd1ea311f46d2fec0464736f6c63430005100032",
  "source": "// SPDX-License-Identifier: MIT\npragma solidity >=0.4.22 <0.9.0;\n\ncontract DownBad {\n\n\tmapping(address => uint) public downBadIndices;\n\tuint[] balances = new uint[](1);\n\n\tfunction () external payable {\n\n\t\tuint split = msg.value / balances.length;\n\t\tfor(uint i = 0; i < balances.length; i++){\n\n\t\t\tbalances[i] += split;\n\t\t}\n\t}\n\n\tfunction joinDownBad() public {\n\n\t\tif(downBadIndices[msg.sender] == 0){\n\n\t\t\tdownBadIndices[msg.sender] = balances.length;\n\t\t\tbalances.push(0);\n\t\t}\n\t}\n\n\n\tfunction withdraw() public {\n\n\t\tif(downBadIndices[msg.sender] != 0){\n\n\t\t\tuint index = downBadIndices[msg.sender];\n\t\t\taddress payable addr = address(uint160(msg.sender));\n\t\t\taddr.transfer(balances[index]);\n\t\t}\n\t}\n\n}\n",
  "sourcePath": "/Users/odellblackmoniii/Projects/DownBad/contracts/DownBad.sol",
  "compiler": {
    "name": "solc",
    "version": "0.5.16+commit.9c3226ce.Emscripten.clang"
  },
  "schemaVersion": "3.4.2",
  "updatedAt": "2021-08-07T01:55:03.451Z",
  "networkType": "ethereum",
  "devdoc": {
    "methods": {}
  },
  "userdoc": {
    "methods": {}
  }
}