{
  "contractName": "DownBad",
  "abi": [
    {
      "anonymous": false,
      "inputs": [
        {
          "indexed": false,
          "internalType": "address",
          "name": "_donatorAddr",
          "type": "address"
        }
      ],
      "name": "Donation",
      "type": "event"
    },
    {
      "anonymous": false,
      "inputs": [
        {
          "indexed": false,
          "internalType": "address payable",
          "name": "_downBadAddr",
          "type": "address"
        }
      ],
      "name": "JoinDownBad",
      "type": "event"
    },
    {
      "anonymous": false,
      "inputs": [
        {
          "indexed": false,
          "internalType": "address payable",
          "name": "_downBadAddr",
          "type": "address"
        }
      ],
      "name": "LeftDownBad",
      "type": "event"
    },
    {
      "payable": true,
      "stateMutability": "payable",
      "type": "fallback"
    },
    {
      "constant": true,
      "inputs": [
        {
          "internalType": "address",
          "name": "_addr",
          "type": "address"
        }
      ],
      "name": "isDownBad",
      "outputs": [
        {
          "internalType": "bool",
          "name": "",
          "type": "bool"
        }
      ],
      "payable": false,
      "stateMutability": "view",
      "type": "function"
    },
    {
      "constant": false,
      "inputs": [
        {
          "internalType": "address payable",
          "name": "_downBad",
          "type": "address"
        }
      ],
      "name": "joinDownBad",
      "outputs": [],
      "payable": false,
      "stateMutability": "nonpayable",
      "type": "function"
    },
    {
      "constant": false,
      "inputs": [
        {
          "internalType": "address payable",
          "name": "_downBad",
          "type": "address"
        }
      ],
      "name": "removeDownBad",
      "outputs": [],
      "payable": false,
      "stateMutability": "nonpayable",
      "type": "function"
    }
  ],
  "bytecode": "0x608060405234801561001057600080fd5b5061067d806100206000396000f3fe6080604052600436106100345760003560e01c806321aa0ade146101615780634d39bd04146101b2578063c7826f8e14610203575b600080600001805490501461015f57600080600001805490509050600081348161005a57fe5b04905060008090505b828110156100f85760008001818154811061007a57fe5b9060005260206000200160009054906101000a900473ffffffffffffffffffffffffffffffffffffffff1673ffffffffffffffffffffffffffffffffffffffff166108fc839081150290604051600060405180830381858888f193505050501580156100ea573d6000803e3d6000fd5b508080600101915050610063565b507f187f451f92c6a4236353b5331d5fb67bdbfcc66b54367037fba41d6bcef08ce733604051808273ffffffffffffffffffffffffffffffffffffffff1673ffffffffffffffffffffffffffffffffffffffff16815260200191505060405180910390a150505b005b34801561016d57600080fd5b506101b06004803603602081101561018457600080fd5b81019080803573ffffffffffffffffffffffffffffffffffffffff16906020019092919050505061026c565b005b3480156101be57600080fd5b50610201600480360360208110156101d557600080fd5b81019080803573ffffffffffffffffffffffffffffffffffffffff1690602001909291905050506103fa565b005b34801561020f57600080fd5b506102526004803603602081101561022657600080fd5b81019080803573ffffffffffffffffffffffffffffffffffffffff1690602001909291905050506105f0565b604051808215151515815260200191505060405180910390f35b610275816105f0565b6103f757600080018190806001815401808255809150509060018203906000526020600020016000909192909190916101000a81548173ffffffffffffffffffffffffffffffffffffffff021916908373ffffffffffffffffffffffffffffffffffffffff160217905550506001600060010160008373ffffffffffffffffffffffffffffffffffffffff1673ffffffffffffffffffffffffffffffffffffffff16815260200190815260200160002060006101000a81548160ff02191690831515021790555060008060000180549050905060018103600060020160008473ffffffffffffffffffffffffffffffffffffffff1673ffffffffffffffffffffffffffffffffffffffff168152602001908152602001600020819055507f36f276ca9d06d62f435852e1de86a3271bf325d6b9b9537d6a1c98546040036482604051808273ffffffffffffffffffffffffffffffffffffffff1673ffffffffffffffffffffffffffffffffffffffff16815260200191505060405180910390a1505b50565b610403816105f0565b156105ed5760008060020160008373ffffffffffffffffffffffffffffffffffffffff1673ffffffffffffffffffffffffffffffffffffffff16815260200190815260200160002054905060008060000180549050905060008001600182038154811061046c57fe5b9060005260206000200160009054906101000a900473ffffffffffffffffffffffffffffffffffffffff166000800183815481106104a657fe5b9060005260206000200160006101000a81548173ffffffffffffffffffffffffffffffffffffffff021916908373ffffffffffffffffffffffffffffffffffffffff16021790555060008001600182038154811061050057fe5b9060005260206000200160006101000a81549073ffffffffffffffffffffffffffffffffffffffff021916905560008060010160008573ffffffffffffffffffffffffffffffffffffffff1673ffffffffffffffffffffffffffffffffffffffff16815260200190815260200160002060006101000a81548160ff0219169083151502179055507f78d902c5437d39cb4722ce675253563a45de8aaf0c7b3e693530711f36bdfd1983604051808273ffffffffffffffffffffffffffffffffffffffff1673ffffffffffffffffffffffffffffffffffffffff16815260200191505060405180910390a150505b50565b60008060010160008373ffffffffffffffffffffffffffffffffffffffff1673ffffffffffffffffffffffffffffffffffffffff16815260200190815260200160002060009054906101000a900460ff16905091905056fea265627a7a72315820cd21e1147c168b9c43c6739e05486314708efff601b16a277fc8dd160006d2f564736f6c63430005100032",
  "source": "// SPDX-License-Identifier: MIT\npragma solidity >=0.4.22 <0.9.0;\n\ncontract DownBad {\n\n\tevent JoinDownBad(address payable _downBadAddr);\n\tevent LeftDownBad(address payable _downBadAddr);\n\tevent Donation(address _donatorAddr);\n\n\tstruct DownBadManager {\n\t\taddress payable[] downBadAddressesArr;\n\t\tmapping (address => bool)  downBadAddressesPresent;\n\t\tmapping (address => uint)  downBadIndices;\n\t}\n\n\tDownBadManager manager;\n\n\tfunction () external payable {\n\n\t\tif(manager.downBadAddressesArr.length != 0){\n\t\t\tuint numOfDownBad = manager.downBadAddressesArr.length;\n\t\t\tuint split = msg.value / numOfDownBad;\n\n\t\t\tfor(uint i = 0; i < numOfDownBad; i++){\n\n\t\t\t\tmanager.downBadAddressesArr[i].transfer(split);\n\t\t\t}\n\n\t\t\temit Donation(msg.sender);\n\t\t}\n\n\t}\n\n\tfunction isDownBad(address _addr) public view returns (bool) {\n\n\t\treturn manager.downBadAddressesPresent[_addr];\n\t}\n\n\tfunction joinDownBad(address payable _downBad) public {\n\n\t\tif(!isDownBad(_downBad)){\n\n\t\t\tmanager.downBadAddressesArr.push(_downBad);\n\t\t\tmanager.downBadAddressesPresent[_downBad] = true;\n\t\t\tuint arrLength = manager.downBadAddressesArr.length;\n\t\t\tmanager.downBadIndices[_downBad] = arrLength - 1;\n\t\t\temit JoinDownBad(_downBad);\n\t\t}\n\t}\n\n\n\n\tfunction removeDownBad(address payable _downBad) public {\n\n\t\tif(isDownBad(_downBad)){\n\n\t\t\tuint index = manager.downBadIndices[_downBad];\n\t\t\tuint arrLength = manager.downBadAddressesArr.length;\n\t\t\tmanager.downBadAddressesArr[index] = manager.downBadAddressesArr[arrLength - 1];\n\t\t\tdelete manager.downBadAddressesArr[arrLength - 1];\n\t\t\tmanager.downBadAddressesPresent[_downBad] = false;\n\t\t\temit LeftDownBad(_downBad);\n\t\t}\n\n\t}\n\n}\n",
  "sourcePath": "/Users/odellblackmoniii/Projects/DownBad/contracts/DownBad.sol",
  "compiler": {
    "name": "solc",
    "version": "0.5.16+commit.9c3226ce.Emscripten.clang"
  },
  "schemaVersion": "3.4.2",
  "updatedAt": "2021-08-26T01:31:51.579Z",
  "devdoc": {
    "methods": {}
  },
  "userdoc": {
    "methods": {}
  }
}